:020000040800F2
:10400000006D00209D410008D1F4000855A1000872
:10401000A9410008AB410008AD41000800000000C4
:10402000000000000000000000000000AF41000898
:104030002D62000800000000B3410008FD170108D0
:10404000B7410008B7410008B7410008B741000870
:10405000B7410008B7410008B7410008B741000860
:104060002F620008B7410008B7410008B7410008B7
:10407000B7410008B7410008B7410008B741000840
:10408000B7410008B7410008B7410008B741000830
:10409000B7410008B7410008B7410008B741000820
:1040A000B7410008B7410008B7410008B741000810
:1040B000B741000835190108B7410008B7410008A9
:1040C000B7410008B7410008B7410008B7410008F0
:1040D000B7410008B7410008B7410008B7410008E0
:1040E000B7410008B7410008B7410008B7410008D0
:1040F000B7410008B7410008B7410008B7410008C0
:10410000B7410008B7410008B7410008B7410008AF
:10411000B7410008B7410008B7410008B74100089F
:10412000B7410008B7410008B7410008B74100088F
:10413000B7410008B7410008B7410008B74100087F
:10414000B7410008B7410008B74100080DF5000865
:10415000B7410008B7410008B7410008B74100085F
:10416000B7410008B7410008B7410008B74100084F
:10417000B7410008B7410008B7410008000000003F
:10418000B7410008B7410008DFF80CD000F0A4FBED
:1041900000480047996A0108006D002006488047E2
:1041A00006480047FEE7FEE7FEE7FEE7FEE7FEE71C
:1041B000FEE7FEE7FEE7FEE7E11801088941000897
:1041C0002DE9F0410024061B254671F1000605DAB1
:1041D00001240027D0EB070067EB0101161E73F1E5
:1041E000000605DA0027D2EB0702012567EB03037F
:1041F00000F010F986460E4617469C46AC4204D0A5
:104200000025D0EB050E65EB010624B10020D2EBB2
:10421000000760EB030C704631463A466346BDE842
:10422000F08140EA01039B0703D009E008C9121F8F
:1042300008C0042AFAD203E011F8013B00F8013B60
:10424000521EF9D27047D2B201E000F8012B491E8C
:10425000FBD270470022F6E710B513460A46044623
:104260001946FFF7F0FF204610BD421C10F8011B55
:104270000029FBD1801A70472DE9FE4F81EA030423
:1042800004F0004421F0004100944FF0000B23F0B3
:10429000004350EA01045ED052EA03045BD0C3F34A
:1042A0000A54C1F30A552C44A4F2F3340194A0FB40
:1042B0000254C1F3130141F48011C3F3130343F417
:1042C000801301FB024400FB034E840A970A44EA70
:1042D000815447EA8357A4FB076802958D0A05FBC2
:1042E00007854FEA932C04FB0C542705029D4FEAE7
:1042F000065847EA1637B5EB08056EEB070C870E34
:10430000920E47EA811742EA8312A7FB0201B6EB3D
:104310000B0164EB00042B0D43EA0C335E1844EBF5
:104320001C50DA465146E7FB0201C5F313044FEA7D
:104330000B3343EA14534FEA0432019C43EA060369
:10434000A4F10C040294009CCDE900B400F0B5F88F
:1043500003B000F003B800200146F9E730BCBDE827
:10436000C08F0EB5C10F80EAE0700844CA07002173
:1043700040F233438DE80E000A460B4600F09DF8EC
:1043800003B000BD70B5C1F30A5201F0004500242E
:10439000C1F3130140F2FF3341F480119A4201DA74
:1043A000002070BD40F233439A42A2F2334203DC54
:1043B000524200F063F800E090402C43F1D04042BC
:1043C00070BD00F0004230F000400AD0C10D01F590
:1043D0006071C0F3160042EA0151C2084007114360
:1043E000704700200146704730B50B46014600205B
:1043F0002022012409E021FA02F59D4205D303FAA7
:1044000002F5491B04FA02F52844151EA2F1010227
:10441000F1DC30BD2DE9F05F0546002092469B4659
:1044200088460646814640241BE0284641464746CA
:10443000224600F023F853465A46C01A914110D341
:1044400011461846224600F059FA2D1A67EB01086A
:104450004F4622460120002100F050FA17EB0009D8
:104460004E41201EA4F10104DFDC484631462A46B5
:10447000434600F000B830BCBDE8C09F202A04DBF2
:10448000203A21FA02F00021704721FA02F3D040CD
:10449000C2F12002914008431946704710B5141E1E
:1044A00073F1000408DA401C41F1000192185B41ED
:1044B0001A4301D120F0010010BD2DE9F04D9246C4
:1044C0009B4611B1B1FA81F202E0B0FA80F22032DB
:1044D000904600F013FA04460F4640EA0A0041EA0B
:1044E0000B0153465A46084313D0114653EA0100C4
:1044F00019D0C8F140025046FFF7C0FF05460E46EE
:1045000050465946424600F0F9F9084305D00120CB
:1045100004E020463946BDE8F08D0020054346EA18
:10452000E0762C4337430A986305E40AA0EB0800C1
:104530000022FD0A44EA47540A3002D50020014611
:10454000E9E7010510196941DDE9084500196941EC
:10455000BDE8F04DA2E72DE9FE4F804681EA030059
:10456000C00F0C46009021F0004123F00045B8EB4D
:104570000200A94105D24046214690461C460B4602
:10458000024623F00040104347D0270DC7F30A002E
:10459000C3F30A510290401A019040286BDAC3F32A
:1045A000130040F4801B0098924620B10023D2EB08
:1045B000030A63EB0B0B01985946C0F140025046C9
:1045C00000F09CF906460D4650465946019A00F007
:1045D000A4F910EB08006141002487EA115284EA33
:1045E000E7731A4340D0009A62B3019A012A4FEA56
:1045F000075215DC001B61EB02014FF0004202EA9A
:104600000752CDE90042001C41F5801132462B468D
:10461000FFF753FF03B000F045B840462146F9E7E5
:10462000001B61EB0201001C41F5801300185B4187
:104630002018A2F5001747EB030140EAD570B61920
:104640006D4111E06D084FEA360645EAC0754FEA44
:104650000752001B61EB0201001C41F58011490863
:104660004FEA30000019514132462B4603B000F0AA
:104670001CB8FFF713BF0098012240000023D0EBC5
:10468000020263EBE073009821464FEAE074B8EB56
:10469000000061EB0401E9E783F000435BE781F090
:1046A000004158E730BCBDE8C08F30BCBDE8C04F0A
:1046B000FFF7DFBF2DE9F04D81EA030404F0004B62
:1046C00021F0004514464FF0000A23F0004150EA63
:1046D000050220D054EA01021DD0C5F30A57024654
:1046E000C5F31303C1F31300C1F30A5640F4801558
:1046F00043F48013A7EB0608101BD64608F2FD38DA
:1047000073EB050002D308F1010801E092185B4148
:10471000B8F1000F03DA00200146BDE8F08D00205B
:104720004FF48011064684460EE0171B73EB050715
:1047300005D3121B63EB050306434CEA010C490841
:104740004FEA300092185B4150EA0107EDD152EA7E
:10475000030012D082EA040083EA0501084305D071
:10476000101BAB4106D20122002306E000224FF0CD
:10477000004302E06FF0010253101AEB06004CEB0D
:10478000085110EB0A0041EB0B01BDE8F04DFFF7BB
:1047900085BE70B521F0004303430CD0C1F30A5528
:1047A0000024D5EB040564EB0403D617AD1AB3411E
:1047B00002DB0020014670BD201841EB025170BDA4
:1047C0002DE9F041054621F000400C46284309D070
:1047D000C4F30A5040F23341884205DD28462146A1
:1047E000BDE8F0812846FBE740F2FE31884210DC4C
:1047F0000CDB4FEA043040EA155050EA053105D091
:10480000104804F0004101430020E9E70020014680
:10481000E6E7A0F233404642C6F140022846214670
:1048200000F06CF807468846284621463246FFF7D6
:1048300025FE43463A46FFF731FE3246BDE8F041D9
:1048400000F05CB80000F03FC1F30A52C1F313015D
:1048500040F2FF3341F480119A4202DA002001460F
:10486000704740F233439A42A2F2334202DC524292
:10487000FFF704BE00F042B830B5041E71F1000429
:1048800004DB4FF00044404264EB0101141E73F15D
:10489000000405DB1C464FF00043524263EB040367
:1048A0008B4208BF824230BD30B5041E71F1000456
:1048B00004DB4FF00044404264EB0101141E73F12D
:1048C000000405DB1C464FF00043524263EB040337
:1048D000994208BF904230BD064C074D06E0E068A3
:1048E00040F0010394E8070098471034AC42F6D337
:1048F000FFF74EFCD0780108F0780108202A04DB8D
:10490000203A00FA02F1002070479140C2F12003E2
:1049100020FA03F3194390407047202A06DBCB1797
:10492000203A41FA02F043EAE07306E041FA02F36A
:10493000D040C2F1200291400843194670472DE94A
:10494000F04D00231A461B1A8A4103DB0020014662
:10495000BDE8F08DC1F30A52C1F3130141F4801593
:104960004FF0000BD10702D100186D41521E0027F5
:10497000044640F2FF11384601EB620A3E4680468B
:10498000024600204FF48011FFF778FDC2197141F3
:10499000BB1846EB0100B4EB030C75EB000C04D321
:1049A000E41A65EB000517460E46241908F10100CC
:1049B0006D4180463428E3DDF91946EB0600091BFA
:1049C000A84103D24FF0FF32134601E00022134604
:1049D0001BEB070046EB0A51BDE8F04DFFF75EBD4B
:1049E00070B58C1810F8015B15F0070301D110F8B1
:1049F000013B2A1106D110F8012B03E010F8016BDE
:104A000001F8016B5B1EF9D12B0705D40023521E60
:104A10000DD401F8013BFAE710F8013BCB1A921CC8
:104A200003E013F8015B01F8015B521EF9D5A142C6
:104A3000D8D3002070BD000030B58BB0044607A964
:104A4000204600F084F903A9204600F0E8F99DF81B
:104A50000C00012870D104A9204600F023F9012898
:104A600003D100200490059006904C48007800285F
:104A70007DD0069800904AA15248DDE904230EF04B
:104A8000DBFD5048FFF7F1FB054629464D4801F094
:104A9000A5FA4D48007801287ED10AA9204600F0E9
:104AA0007DF9012806D19DF81C2048A145480EF04B
:104AB000C3FD07E09DF828309DF81C204BA141481C
:104AC0000EF0BAFD3F48FFF7D0FB054629463D48AA
:104AD00001F084FA09A9204600F045F9012806D121
:104AE0009DF81C2049A137480EF0A6FD0FE00322D7
:104AF00001A902A89DED090A11F00AFD0198009094
:104B00009DF81C2045A12F48029B0EF095FD2D48D5
:104B1000FFF7ABFB054629462A4801F05FFA08A9D2
:104B2000204600F0F9F8012807D19DF81C2041A18A
:104B300024480EF081FD10E02EE0032201A902A816
:104B40009DED080A11F0E4FC019800909DF81C20EE
:104B50003CA11C48029B0EF06FFD1A48FFF785FB35
:104B600005462946174801F039FA15E0FFE73A48AB
:104B7000007888B10698009038A11248DDE9042336
:104B80000EF05AFDC5B2384B2A460E49374811F08F
:104B900005F93749087000BF0BB030BD2005002073
:104BA0000A0D4143435F583A2025642C204143437A
:104BB0005F593A2025642C204143435F5A3A20250F
:104BC000640000008C0C00201905002057484F207D
:104BD000414D204920616464726573735B25645D97
:104BE0003A204552524F520A0000000057484F20C9
:104BF000414D204920616464726573735B25645D77
:104C00003A203078253032580A0000004F44525B79
:104C100025645D3A204552524F520A004F44525B80
:104C200025645D3A2025642E2530336420487A0AB5
:104C30000000000046535B25645D3A204552524F08
:104C4000520A000046535B25645D3A2025642E25F8
:104C500030336420670A0000180500202564092508
:104C600064092564090000000C050020600A00208A
:104C70000805002070B505462C460CB9012070BD12
:104C8000206908B90120FAE720786A2808D1266946
:104C9000706D08B90120F2E72046716D8847EEE794
:104CA0000120ECE72DE9F04104460E462546002799
:104CB00015B90120BDE8F081EF680EB90120F9E7D0
:104CC000B86908B90120F5E731462846BA69904726
:104CD000012800D1EEE70020ECE72DE9F041054680
:104CE0000E462C4614B90120BDE8F081206908B9B0
:104CF0000120F9E70EB90120F6E720786A2809D1EA
:104D00002769F86D08B90120EEE731462046FA6DB3
:104D10009047E9E70120E7E72DE9F04104460E4618
:104D20002546002715B90120BDE8F081EF680EB9CE
:104D30000120F9E7386B08B90120F5E7314628462C
:104D40003A6B9047012800D1EEE70020ECE70246DD
:104D500013460BB90120704709B90120FBE7187908
:104D600008700020F7E72DE9F04104460E4625467D
:104D7000002715B90120BDE8F081EF680EB90120C8
:104D8000F9E7786A08B90120F5E7314628467A6ADA
:104D90009047012800D1EEE70020ECE72DE9F04133
:104DA00004460F462546002615B90120BDE8F081CE
:104DB000EE68306908B90120F8E7394628463269BB
:104DC0009047012800D1F1E70020EFE770B50546D4
:104DD0000C4600202060B5F1FF3F03D075B1012DD6
:104DE00013D000BF204600F031FD012805D1204638
:104DF00000F05AFC012800D170BD0DE0204600F003
:104E000025FD012800D1F7E706E0204600F04CFC24
:104E1000012800D1F0E700BF00BF0020ECE7024608
:104E200013460BB90120704709B90120FBE75879F7
:104E300008700020F7E770B50446254600260DB936
:104E4000012070BDEE68B06808B90120F9E7284676
:104E5000B1688847012800D1F3E70020F1E72DE988
:104E6000F04105460F462C4614B90120BDE8F081FB
:104E7000206908B90120F9E720786A2809D1266954
:104E8000306E08B90120F1E739462046326E90476E
:104E9000ECE70120EAE72DE9F04104460F462546FC
:104EA000002615B90120BDE8F081EE68306A08B926
:104EB0000120F8E739462846326A9047F3E72DE9A2
:104EC000F04104460F462546002615B90120BDE8ED
:104ED000F081EE68306B08B90120F8E739462846C2
:104EE000326B9047F3E7000070B504460025204878
:104EF0004079012800D170BD0CF0ACF9012800D137
:104F0000F9E714201A49087000204870E0208870E2
:104F10000020C8700871487188710120C871154857
:104F200088601548C860002008611448114908606D
:104F3000002048600E4820602068C568286838B99D
:104F400014212068FFF786F9002020600120D2E7B5
:104F5000206829688847012807D114212068FFF7B5
:104F600079F9002020600120C5E70020C3E7000098
:104F7000B0070020F003002034030020C407002005
:104F8000024613460BB90120704709B90120FBE71F
:104F9000587908700020F7E72DE9F04104460F46E4
:104FA0002546002615B90120BDE8F081EE6870693C
:104FB00008B90120F8E73946284672699047F3E7B7
:104FC0002DE9F04104460E462546002715B901207B
:104FD000BDE8F081EF680EB90120F9E7B86908B9BA
:104FE0000120F5E731462846BA699047012800D1EB
:104FF000EEE70020ECE72DE9F04104460E46254699
:10500000002715B90120BDE8F081EF680EB9012035
:10501000F9E7386B08B90120F5E7314628463A6BC5
:105020009047012800D1EEE70020ECE70246134646
:105030000BB90120704709B90120FBE71879087006
:105040000020F7E72DE9F04104460E4625460027EB
:1050500015B90120BDE8F081EF680EB90120F9E72C
:10506000786A08B90120F5E7314628467A6A904700
:10507000012800D1EEE70020ECE72DE9F0410446DD
:105080000E462546002715B90120BDE8F081EF68DE
:105090000EB90120F9E7386908B90120F5E7314672
:1050A00028463A699047012800D1EEE70020ECE756
:1050B00070B505460C4600202060B5F1FF3F01D0D9
:1050C0003DB100BF204600F02DFC012800D170BD8D
:1050D00006E0204600F026FC012800D1F7E700BFDB
:1050E00000BF0020F3E7024613460BB901207047CA
:1050F00009B90120FBE7587908700020F7E770B57F
:105100000446254600260DB9012070BDEE68B06842
:1051100008B90120F9E72846B1688847012800D17D
:10512000F3E70020F1E7000070B5044600252148B0
:105130004079012800D170BD0CF08CF8012800D115
:10514000F9E7BC201B49087000204870BE20887019
:1051500000200871487188710120C8711648886064
:105160001648C860002008611548164908600846BE
:1051700011490860002048600E4820602068C5681A
:10518000286838B914212068FFF764F800202060EF
:105190000120D0E7206829688847012807D1142119
:1051A0002068FFF757F8002020600120C3E70020A7
:1051B000C1E700003C070020C00300200C000020D5
:1051C00074000020C803002070B50446002525485F
:1051D000407E012800D170BD0CF03CF8012800D1C0
:1051E000F9E7BC201F49087500211E484175BE2102
:1051F0008175012101760021417681760121C176F8
:1052000019481849C86119491648016200214162CC
:105210001748184908600846134908398860002172
:1052200011480838C1600F48143020602068C568F4
:10523000286838B914212068FFF70CF80020206096
:105240000120C8E7206829688847012807D1142170
:105250002068FEF7FFFF002020600120BBE7002050
:10526000B9E7000078070020A807002040000020D0
:1052700074000020E80300202DE9F04104460E46AA
:105280002546002715B90120BDE8F081EF680EB969
:105290000120F9E7B86908B90120F5E73146284649
:1052A000BA699047012800D1EEE70020ECE70246FA
:1052B00013460BB90120704709B90120FBE71879A3
:1052C00008700020F7E72DE9F04104460E46254618
:1052D000002715B90120BDE8F081EF680EB9012063
:1052E000F9E7F86908B90120F5E731462846FA6977
:1052F0009047012800D1EEE70020ECE72DE9F041CE
:1053000004460E462546002715B90120BDE8F08168
:10531000EF680EB90120F9E7386908B90120F5E70F
:10532000314628463A699047012800D1EEE700202F
:10533000ECE770B505460C4600202060B5F1FF3F54
:1053400001D03DB100BF2046FFF7EEFE012800D19D
:1053500070BD06E02046FFF7E7FE012800D1F7E721
:1053600000BF00BF0020F3E7024613460BB901203F
:10537000704709B90120FBE7587908700020F7E76A
:1053800070B50446254600260DB9012070BDEE68B3
:10539000B06808B90120F9E72846B16888470128B4
:1053A00000D1F3E70020F1E710B586B0044600BF56
:1053B0002048806D40F080501E4988650846806D09
:1053C00000F08050009000BF00BF02F0D7FB00BF8C
:1053D0006CB900BF1748C06C40F040001549C86464
:1053E0000846C06C00F04000009000BF00BF012CD8
:1053F0000DD100BF0F48C06C40F001000D49C864DA
:105400000846C06C00F00100009000BF00BF00BF64
:10541000094850F8240001900120029000200390D8
:1054200002200490054951F8240001A901F0FEF87A
:1054300006B010BD0010024008720108940300205D
:1054400010B5044654B90C4A32F8242091B20B4AE4
:1054500052F82400002201F0EDF90BE0012C09D1F3
:10546000054A32F8242091B2044A52F8240001225D
:1054700001F0E0F910BD000008720108940300205B
:1054800010B5044654B90C4A32F8242091B20B4AA4
:1054900052F82400012201F0CDF90BE0012C09D1D2
:1054A000054A32F8242091B2044A52F8240000221E
:1054B00001F0C0F910BD000008720108940300203B
:1054C00038B504460025012000903748407901286E
:1054D00000D138BD0CF088F8012800D1F9E7B120DF
:1054E0003149087001204870BA2088700320C870C4
:1054F00000200871487188710120C8712B488860AC
:105500002B48C860002008612A482B4908600846DB
:1055100026490860002048602348206020680BF07E
:105520004DFF24484078E8B901236A4610212068DD
:105530000CF032F908B10120CBE7206806F00EF834
:1055400008B10120C5E74FF47A7001F04DF8012051
:10555000009001236A46102120680CF01DF908B163
:105560000120B6E72068C568286838B9142120688A
:10557000FEF770FE002020600120AAE7206829685D
:105580008847012807D114212068FEF763FE002018
:10559000206001209DE70021206805F06FFE0128B2
:1055A00000D196E7002094E764070020D80300208C
:1055B0007800002058010020E003002038B50446A0
:1055C00000250120009033484079012800D138BDE2
:1055D0000CF00AF8012800D1F9E7B1202D49087034
:1055E00001204870BA2088700320C870002008711C
:1055F000487188710120C871274888602748C860B1
:1056000000200861264827490860084622490860AA
:10561000002048601F48206020680BF0CFFE204823
:105620000078E0B901236A46102120680CF0B4F834
:1056300008B10120CBE7206805F090FF08B10120F8
:10564000C5E7642000F0D0FF0120009001236A46E6
:10565000102120680CF0A0F808B10120B7E72068FD
:10566000C568286838B914212068FEF7F3FD0020CA
:1056700020600120ABE7206829688847012807D10E
:1056800014212068FEF7E6FD0020206001209EE73F
:1056900000209CE778070020A0070020AC00002035
:1056A00058010020E403002038B5044600250120FD
:1056B00000902D48407E012800D138BD0BF094FFAA
:1056C000012800D1F9E73320274908750121264830
:1056D0004175322181750121C17501760021417624
:1056E00081760121C17621481F49C86120491E48A1
:1056F0000162002141621F481F49086008461B499A
:1057000008398860002119480838C16016481430EB
:10571000206020680BF052FE1648407840B9012303
:105720006A46232120680CF037F808B10120C4E74D
:105730002068C568286838B914212068FEF78AFDFA
:10574000002020600120B8E72068296888470128E8
:1057500007D114212068FEF77DFD00202060012084
:10576000ABE70020A9E70000F0060020200700209A
:1057700098020020E8020020A803002038B5044663
:105780000025012000902C484079012800D138BD27
:105790000BF02AFF012800D1F9E7402026490870C4
:1057A000012048703C2088700220C87000200871D9
:1057B00048718871C871214888602148C8600020FC
:1057C000086120482049086008461C4908600020FC
:1057D00048601948206020680BF0F0FD19480078F7
:1057E00040B901236A46232120680BF0D5FF08B198
:1057F0000120CCE72068C568286838B914212068E2
:10580000FEF728FD002020600120C0E720682968FD
:105810008847012807D114212068FEF71BFD0020CE
:1058200020600120B3E72021206806F086FA08B93D
:105830000120ACE70020AAE750070020CC0300209D
:10584000EC020020E8020020D403002038B5044612
:1058500000250C2000902D484079012800D138BD4A
:105860000BF0C2FE012800D1F9E76A202749087031
:1058700001204870D62088700020C87008714871D7
:1058800088710120C871224888602248C860224877
:10589000086122482249086008461D490860002026
:1058A00048601A48206020680BF088FD1B4840784B
:1058B00040B901236A46122120680BF06DFF08B140
:1058C0000120CCE72068C568286838B91421206811
:1058D000FEF7C0FC002020600120C0E72068296896
:1058E0008847012807D114212068FEF7B3FC002067
:1058F00020600120B3E70421206807F097FC08B975
:105900000120ACE708F010FC0020A8E7F00600201A
:1059100018070020F40100206001002094020020FC
:10592000A003002038B5044600250C2000902C4828
:105930004079012800D138BD0BF056FE012800D176
:10594000F9E76A202649087001204870D62088703F
:105950000020C8700871487188710120C871214801
:1059600088602148C86000200861204820490860FC
:1059700008461C49086000204860194820602068DB
:105980000BF01CFD1948007840B901236A4612212A
:1059900020680BF001FF08B10120CCE72068C56842
:1059A000286838B914212068FEF754FC00202060D4
:1059B0000120C0E7206829688847012807D1142101
:1059C0002068FEF747FC002020600120B3E7042197
:1059D000206807F02BFC08B90120ACE70020AAE7FB
:1059E00028070020B0030020440200209402002079
:1059F000B80300202DE9F04104460E462546002755
:105A000015B90120BDE8F081EF680EB90120F9E772
:105A1000B86908B90120F5E731462846BA699047C8
:105A2000012800D1EEE70020ECE72DE9F041044623
:105A30000E462546002715B90120BDE8F081EF6824
:105A40000EB90120F9E7386B08B90120F5E73146B6
:105A500028463A6B9047012800D1EEE70020ECE79A
:105A6000024613460BB90120704709B90120FBE734
:105A7000187908700020F7E72DE9F04104460E463A
:105A80002546002715B90120BDE8F081EF680EB961
:105A90000120F9E7786A08B90120F5E73146284680
:105AA0007A6A9047012800D1EEE70020ECE72DE963
:105AB000F04104460E462546002715B90120BDE8F1
:105AC000F081EF680EB90120F9E7386908B90120C3
:105AD000F5E7314628463A699047012800D1EEE7BC
:105AE0000020ECE770B505460C4600202060B5F1BB
:105AF000FF3F01D03DB100BF2046FFF73FFE012828
:105B000000D170BD06E02046FFF738FE012800D125
:105B1000F7E700BF00BF0020F3E7024613460BB9CA
:105B20000120704709B90120FBE75879087000206F
:105B3000F7E770B50446254600260DB9012070BD73
:105B4000EE68B06808B90120F9E72846B1688847CF
:105B5000012800D1F3E70020F1E7024613460BB914
:105B60000120704709B90120FBE71879087000206F
:105B7000F7E72DE9F04104460E462546002715B902
:105B80000120BDE8F081EF680EB90120F9E7F8695E
:105B900008B90120F5E731462846FA6990470128FF
:105BA00000D1EEE70020ECE72DE9F04104460E4677
:105BB0002546002715B90120BDE8F081EF680EB930
:105BC0000120F9E7B86908B90120F5E73146284610
:105BD000BA699047012800D1EEE70020ECE72DE9F3
:105BE000F04104460E462546002715B90120BDE8C0
:105BF000F081EF680EB90120F9E7386908B9012092
:105C0000F5E7314628463A699047012800D1EEE78A
:105C10000020ECE770B505460C4600202060B5F189
:105C2000FF3F01D03DB100BF2046FFF749FC0128EE
:105C300000D170BD06E02046FFF742FC012800D1EC
:105C4000F7E700BF00BF0020F3E7024613460BB999
:105C50000120704709B90120FBE75879087000203E
:105C6000F7E770B50446254600260DB9012070BD42
:105C7000EE68B06808B90120F9E72846B16888479E
:105C8000012800D1F3E70020F1E770B504460125B3
:105C900020460AF011F904F12C000AF095F80546A7
:105CA0002069401C6064217E606C891C01228A404E
:105CB00050436064217A01208840A064D4E9110136
:105CC00048436064284670BD0020704710B50AF054
:105CD000CBFA0AF011FA012804D100200849087013
:105CE000012010BD012006490870064800780228EE
:105CF00001D00120F5E70AF0A1FA0020F1E7000049
:105D0000EC030020ED0300202DE9F84F80461546F6
:105D10001E46DDE90A7B4FF00009002401200090B7
:105D2000C2460023FF22394610200AF0C3FB10B1FF
:105D3000012000F04BB82448007802280BD04FF423
:105D400000714FF0000C2A46A2FB010E06FB01E198
:105D500005FB0C1605462EE00AF018FC29194FF039
:105D600000034FF0FF024FF011000AF0A3FB08B14F
:105D70000120DEE7FE200AF087FBD0B94FF00009D2
:105D800007E00AF087FA8AF800000AF1010A09F12F
:105D90000109B945F5D30C480078022801D03C44EC
:105DA00000E0641C0AF076FA0AF074FA0020009011
:105DB00001E001200090BBF10000ABF1010BCBD161
:105DC0000AF0E4FB0098B4E7ED03002018BCBDE83E
:105DD000E08F00002DE9F84F804616461F46DDE9AA
:105DE0000A4B4FF00009002501200090C2462548CB
:105DF0000078022808D000233146A1FB040C07FBE1
:105E000004C206FB0327064633E071194FF0000376
:105E10004FF0FF024FF018000AF04CFB10B10120C8
:105E200000F032B8FF200AF03FFBFE200AF03CFBF6
:105E30004FF0000907E09AF800000AF035FB0AF17C
:105E4000010A09F10109A145F5D30E48007802289D
:105E500001D0254400E06D1C0AF01CFA0AF01AFA81
:105E60000AF024F9052802D10020009001E0012069
:105E70000090BBF10000ABF1010BC6D10AF086FB2C
:105E80000098CDE7ED03002018BCBDE8E08F024686
:105E900013460BB90120704709B90120FBE71879B7
:105EA00008700020F7E72DE9F04104460E4625462C
:105EB000002715B90120BDE8F081EF680EB9012077
:105EC000F9E7F86908B90120F5E731462846FA698B
:105ED0009047012800D1EEE70020ECE72DE9F041E2
:105EE00004460E462546002715B90120BDE8F0817D
:105EF000EF680EB90120F9E7B86908B90120F5E7A4
:105F000031462846BA699047012800D1EEE70020C3
:105F1000ECE72DE9F04104460E462546002715B969
:105F20000120BDE8F081EF680EB90120F9E738697A
:105F300008B90120F5E7314628463A69904701281B
:105F400000D1EEE70020ECE770B505460C460020D6
:105F50002060B5F1FF3F03D075B1012D13D000BF14
:105F60002046FFF731F9012805D12046FFF726FB2F
:105F7000012800D170BD0DE02046FFF71FFB01286E
:105F800000D1F7E706E02046FFF71EF9012800D10F
:105F9000F0E700BF00BF0020ECE7024613460BB954
:105FA0000120704709B90120FBE7587908700020EB
:105FB000F7E770B50446254600260DB9012070BDEF
:105FC000EE68B06808B90120F9E72846B16888474B
:105FD000012800D1F3E70020F1E7000030B50246C8
:105FE0000B4600210DE0505C084C094D2D686055B2
:105FF00007480088401CC0F30A00054C2060481C7C
:1060000081B29942EFD3002030BD0000D4170020A8
:106010005805002010B50346042B15D007DC7BB1D2
:10602000012B0ED0022B0DD0032B3CD10BE0202BEB
:106030000BD0212B1CD0222B33D0232B33D131E09A
:1060400032E031E030E02FE02EE008784C7840EA92
:1060500004208C7840EA0440CC7840EA0460144C78
:10606000206008792071487960718879A0711BE0FF
:106070000F48007808700E480088000A48700C48E5
:106080000068000C88700A480068000EC870084854
:10609000007908710648407948710548807988710F
:1060A00002E001E000E000BF00BF002010BD0000E2
:1060B0004C0500200020704708B500BF1348806DD4
:1060C00040F00200114988650846806D00F002002A
:1060D000009000BF00BF002206211D2000F038FE06
:1060E0001D2000F028FE0BF08DFC094803F009FA92
:1060F00008B100F0A5F80022064907480BF065FE3C
:10610000064905480BF05AFE002008BD0010024069
:10611000D4270020D41700208C0D0020D40F00209D
:10612000024600207047000008B569460C4800F0A0
:1061300088F8A0B9002269460A480FF0A7FC70B1A0
:106140000CE00020FFF79CF94FF4FA7000F04CFAD5
:106150000020FFF775F9642000F046FAF1E708BD6A
:106160008C7701083008002010B503480FF076FC4A
:106170000AF02EF810BD0000600A002000B5B3B090
:10618000A02217490BA8FEF74CF8202102A8FEF721
:1061900061F80AF031F813A000901448038814A2A3
:1061A00018A102A80DF048FA10480088401C0F49B9
:1061B0000880642000F018FA0A2202A914480FF09F
:1061C00097FC10B1002033B000BD0AAB9F220BA991
:1061D0000F480FF0E3FD08B10020F4E70120F2E7DB
:1061E000307801082E747376000000001E05002030
:1061F00053656E736F7254696C655F4C6F675F4E69
:10620000000000002573252E336425730000000074
:10621000600A002008B56B460222024902480FF0CE
:10622000BDFD08BD1A050020600A0020704710B5AA
:10623000042000F0EDF910BD00BFFEE700BFFEE74F
:10624000704730B504460D4600222946204600F02E
:1062500001F830BDF0B50346012500241148407A0D
:1062600001281CDC00200F4E767A0E4FB8553846B8
:10627000467A001D40F82630001F467A08308255C5
:106280003E46707A461C7E72044604F13000087067
:106290003A2048702F2088700020C87000252846BA
:1062A000F0BD0000F42C00207FB50446694620466E
:1062B000FEF766FE9DF8000001283DD101A92046A9
:1062C000FEF76AFE012802D100200390029003A984
:1062D0002046FEF7F4FD012801D10020039002A919
:1062E0002046FEF7D8FD012801D100200290134876
:1062F000007870B112A11848DDE902320DF09CF966
:106300001548FDF7B2FF054629461348FFF766FE1C
:1063100012E01248007878B111A10F48DDE902328D
:106320000DF08AF9C5B2104B2A460B490F480FF001
:1063300035FD0F49087000BF7FBD0000200500201B
:106340000A0D563A2025646D5620436872673A203C
:1063500025642525000000008C0C00201805002075
:1063600025640925640900000C050020600A00204E
:106370000805002070B50A480468001D0568001D66
:106380000668344454B108220649204604F01FFA36
:10639000042204491031284604F019FA70BD0000A7
:1063A000107AFF1FAA05002030B58BB0044607A95C
:1063B0002046FEF73BFE03A92046FEF794FE9DF81B
:1063C0000C00012870D104A92046FEF7F9FD012830
:1063D00003D100200490059006904C4800780028D6
:1063E0007DD0069800904AA15248DDE904230DF0C3
:1063F00023F95048FDF739FF054629464D48FFF778
:10640000EDFD4D48007801287ED10AA92046FEF70F
:1064100034FE012806D19DF81C2048A145480DF006
:106420000BF907E09DF828309DF81C204BA141484E
:106430000DF002F93F48FDF718FF054629463D4893
:10644000FFF7CCFD09A92046FEF7FCFD012806D187
:106450009DF81C2049A137480DF0EEF80FE003220B
:1064600001A902A89DED090A10F052F801980090C8
:106470009DF81C2045A12F48029B0DF0DDF82D480A
:10648000FDF7F3FE054629462A48FFF7A7FD08A9B0
:106490002046FEF7B0FD012807D19DF81C2041A140
:1064A00024480DF0C9F810E02EE0032201A902A84B
:1064B0009DED080A10F02CF8019800909DF81C2022
:1064C0003CA11C48029B0DF0B7F81A48FDF7CDFE21
:1064D000054629461748FFF781FD15E0FFE73B48D1
:1064E000007888B10698009039A11248DDE90423AC
:1064F0000DF0A2F8C5B2394B2A460E4938480FF0C4
:106500004DFC3849087000BF0BB030BD200500209D
:106510000A0D4759525F583A2025642C204759529A
:106520005F593A2025642C204759525F5A3A20255A
:10653000640000008C0C00201905002057484F20F3
:10654000414D204920616464726573735B25645D0D
:106550003A204552524F520A0000000057484F203F
:10656000414D204920616464726573735B25645DED
:106570003A203078253032580A0000004F44525BF0
:1065800025645D3A204552524F520A004F44525BF7
:1065900025645D3A2025642E2530336420487A0A2C
:1065A0000000000046535B25645D3A204552524F7F
:1065B000520A000046535B25645D3A2025642E256F
:1065C000303364206470730A000000001805002056
:1065D0002564092564092564090000000C050020D4
:1065E000600A00200805002070B50446002500F070
:1065F00027F9054600BF00F023F9401BA042FAD35B
:1066000070BD00000121014A117070472105002072
:1066100010B5044604480068204020B102480460D8
:106620002046FFF7EFFF10BD1404014078B5034684
:10663000002200240020E5E0012696400D6805EACE
:106640000604002C7DD04D68022D02D04D68122D1D
:1066500013D1D60803F1200555F826005507EE0E94
:106660000F25B540A8435607F60E0D69B5402843DF
:10667000D60803F1200545F82600186856000325C2
:10668000B540A8430D7905F003055600B5402843F1
:1066900018604D68012D08D04D68022D05D04D6859
:1066A000112D02D04D68122D13D198685600032584
:1066B000B540A8435600CD68B54028439860586857
:1066C00001259540A8430D79C5F300159540284351
:1066D00058600D7905F00305032D09D1D86A01250D
:1066E0009540A8430D79C5F3C00595402843D8626D
:1066F000D86856000325B540A84356008D68B540BC
:106700002843D8604D6805F08055B5F1805F78D199
:1067100000BF3F4D2D6E45F001053D4E35663546B7
:106720002D6E05F00105009500BF00BF4FEAB6359C
:10673000960855F8260095072E0F0F25B540A8435B
:1067400000E05EE0B3F1904F01D100251EE0314D35
:10675000AB4201D1012519E02F4DAB4201D10225F9
:1067600014E02E4DAB4201D103250FE02C4DAB427E
:1067700001D104250AE02B4DAB4201D1052505E0EE
:10678000294DAB4201D1062500E007259607360FBB
:10679000B5402843254D960845F82600244D286825
:1067A000A0434D6805F48035B5F5803F00D1204306
:1067B0001F4D28602D1D2868A0434D6805F4003545
:1067C000B5F5003F00D12043194D2D1D28602D1D2A
:1067D0002868A0434D6805F48015B5F5801F00D1E9
:1067E0002043134D083528602D1D2868A0434D68AF
:1067F00005F40015B5F5001F00D120430C4D0C35F4
:106800002860521C0D68D540002D7FF415AF78BD6F
:10681000001002400004004800080048000C004836
:10682000001000480014004800180048080001400B
:10683000000401400AB1816100E0816270470000FC
:1068400001480068704700000400002010B50446AD
:106850000CB9012010BD242084F841002068006894
:1068600020F0010021680860204600F030FA002086
:10687000606484F84100206384F8420000BF84F81B
:10688000400000BF00BFE5E7014691F841007047B6
:1068900010B504460CB9012010BD94F8410028B988
:1068A000002084F84000204600F012FA242084F8EA
:1068B00041002068006820F00100216808606068DD
:1068C00020F07060216808612068806820F4004032
:1068D00021688860A06868B1E068012805D1A068D7
:1068E00040F400402168886004E0A06840F404405F
:1068F00021688860E068022802D18002216848602F
:10690000206840681049084321684860D4E90401C0
:106910000843A16940EA01202168C860D4E9070161
:106920000843216808602068006840F00100216881
:10693000086000206064202084F84100002020636B
:1069400084F8420000BFA7E7008000022DE9FC5F49
:106950000446894692469B46DDE90C780E9E00254A
:1069600094F8410020287DD117B1B8F1000F02D171
:10697000012000F0C9B800BF94F84000012801D1FF
:106980000220F6E7012084F8400000BFFFF758FF1F
:10699000054619230122D1032046009503F094FEF9
:1069A00008B10320E5E7222084F84100402084F864
:1069B0004200002060646762A4F82A8060635B463E
:1069C000524649462046CDE9006503F007FD80B1F7
:1069D000606C042806D100BF002084F8400000BF8E
:1069E0000120C6E700BF002084F8400000BF03205C
:1069F000BFE7608DFF280DD9FF2020854FF4105090
:106A0000009094F828204FF080734946204603F008
:106A100043FE0CE0608D20854FF41050009094F8F8
:106A200028204FF000734946204603F035FE00BF92
:106A30003346002204212046009503F045FE08B1AC
:106A4000032096E72068406AC1B2626A501C606207
:106A50001170208D401E2085608D401E6085208D28
:106A600048BB00E04BE0608D28B333460022802114
:106A70002046009503F028FE08B1032079E7608DD9
:106A8000FF280CD9FF2020850020009094F82820B2
:106A90004FF080734946204603F0FEFD0BE0608D09
:106AA00020850020009094F828204FF0007349467C
:106AB000204603F0F1FD608D0028B9D12A46314609
:106AC000204603F02CFE30B1606C042801D1012077
:106AD0004FE703204DE720202168C8612068406807
:106AE0000849084021684860202084F841000020BF
:106AF00084F8420000BF84F8400000BF39E702205C
:106B000037E7000000E800FE3CBCBDE8C09F000085
:106B10002DE9FC5F0446894692469B46DDE90C78E8
:106B20000E9E002594F8410020286ED117B1B8F1CF
:106B3000000F02D1012000F0C7B800BF94F8400058
:106B4000012801D10220F6E7012084F8400000BFAF
:106B5000FFF776FE054619230122D1032046009552
:106B600003F0B2FD08B10320E5E7212084F84100DD
:106B7000402084F84200002060646762A4F82A8004
:106B800060635B46524649462046CDE9006503F006
:106B90006BFC80B1606C042806D100BF002084F833
:106BA000400000BF0120C6E700BF002084F840007D
:106BB00000BF0320BFE7608DFF280CD9FF20208590
:106BC0000020009094F828204FF08073494620461A
:106BD00003F062FD0BE0608D20850020009094F8AA
:106BE00028204FF000734946204603F055FD00BFB2
:106BF0002A463146204603F0BDFD38B1606C0428BA
:106C000001D1012097E7032095E759E0616A481C0C
:106C10006062087821688862608D401E6085208DE2
:106C2000401E2085208D38BB608D28B3334600225E
:106C300080212046009503F047FD08B103207AE744
:106C4000608DFF280CD9FF2020850020009094F84B
:106C500028204FF080734946204603F01DFD0BE0CD
:106C6000608D20850020009094F828204FF000735C
:106C70004946204603F010FD608D0028B8D12A4611
:106C80003146204603F04BFD30B1606C042801D141
:106C9000012050E703204EE720202168C8612068CA
:106CA00040680849084021684860202084F8410075
:106CB000002084F8420000BF84F8400000BF3AE79B
:106CC000022038E700E800FE3CBCBDE8C09F7047EA
:106CD0007047000002480068401C01490860704786
:106CE0000400002010B50848006840F48070064990
:106CF0000860032000F06EF80F2000F007F800F0A5
:106D000019F8002010BD00000020024070B50446B4
:106D1000074800684FF47A71B0FBF1F5284602F09D
:106D2000B9FB00222146501E00F012F8002070BD71
:106D300008000020704700BF00F01F0201219140B1
:106D40004209920002F1E022C2F8001100BF704730
:106D50002DE9F05F80460D461646002708F0BAFB85
:106D6000074639462A46334601F00700C0F1070AB4
:106D7000BAF1040F02D94FF0040A01E0C0F1070A8A
:106D8000D14600F1040ABAF1070F02D24FF0000A0F
:106D900001E0A0F1030AD4464FF0010A0AFA09FA09
:106DA000AAF1010A0AEA020A0AFA0CFA4FF0010BE8
:106DB0000BFA0CFBABF1010B0BEA030B4AEA0B04D9
:106DC0002146404608F08EFB00F000B830BCBDE81C
:106DD000C09F000000BF00F00702064B19684FF685
:106DE000FF031940044B0B4343EA0221014B196096
:106DF00000BF70470CED00E00000FA0501460A688C
:106E00000120C1F8C403906B40F40030906300206F
:106E10007047000001460A680120C1F8C003002045
:106E200081F8B803906940F000609061506D024BAA
:106E30001843506500207047030000107047024659
:106E40001068416200207047F0B5034614460025E3
:106E500000221868426A21B942EA04401E68B06202
:106E600019E01868806A02EB1042002508E01868F3
:106E700000F5827050F8250002EB1042681CC5B284
:106E8000481EA842F3DC42EA0447186800F5827005
:106E90004E1E40F826700020F0BD10B50446D4F810
:106EA000C8030BF08FFA10BD70B504460D46C5EB54
:106EB000C50304F13C0101EB8301CA682946D4F8FB
:106EC000C8030BF0CFF970BD70B504460D46C5EB95
:106ED000C50304F5F07101EB8301CA682946D4F8B3
:106EE000C8030BF02CFA70BD10B50446D4F8C803E3
:106EF0000BF06BFA10BD70B504460D46002605F088
:106F00008000802808D105F07F00C0EBC00104F1AB
:106F10003C0000EB810607E005F07F00C0EBC001FC
:106F200004F5F07000EB810605F07F00307005F08D
:106F30008000C009707000BF94F88403012801D15B
:106F4000022070BD012084F8840300BF3146206810
:106F50000BF08CFE00BF002084F8840300BF00BF4C
:106F6000EFE770B504460D46002605F08000802846
:106F700008D105F07F00C0EBC00104F13C0000EB3C
:106F8000810605E0C5EBC50104F5F07000EB810654
:106F90000020B07005F07F003070C5F3C010707035
:106FA00000BF94F88403012801D1022070BD0120A4
:106FB00084F8840300BF314620680CF074F800BFE9
:106FC000002084F8840300BF00BFEFE7024601F011
:106FD0007F00C0EBC00302F5F07000EB8300008B74
:106FE00080B270472DE9F04704460D461746984693
:106FF0004FF00009002605F08000802808D105F038
:107000007F00C0EBC00104F13C0000EB810607E00B
:1070100005F07F00C0EBC00104F5F07000EB8106C5
:1070200005F07F00307005F08000C0097070B76017
:1070300086F8038000BF94F88403012802D102205F
:10704000BDE8F087012084F8840300BF3146206842
:107050000BF054FD00BF002084F8840300BF4846B5
:10706000EEE72DE9F04104460E4617469846002506
:1070700006F07F00C0EBC00104F5F07000EB810565
:10708000EF60C5F814800020A861687006F07F00EA
:10709000287000BF94F88403012802D10220BDE8C3
:1070A000F081012084F8840300BF06F07F0028B936
:1070B000227C294620680BF01BFF04E0227C294635
:1070C00020680CF07BF800BF002084F8840300BF28
:1070D00000BFE4E770B504460D46002605F08000C9
:1070E000802808D105F07F00C0EBC00104F13C000E
:1070F00000EB810605E0C5EBC50104F5F07000EB7F
:1071000081060120B07005F07F003070C5F3C0101B
:10711000707000BF94F88403012801D1022070BD73
:10712000012084F8840300BF314620680BF0FFFF84
:1071300005F07F0028B9217C04F5627220680BF00D
:1071400099FF00BF002084F8840300BF00BFE6E77A
:107150002DE9F04104460E4617469846002506F0F4
:107160007F00C0EBC00104F13C0000EB8105EF6043
:10717000C5F814800020A8610120687006F07F0027
:10718000287000BF94F88403012802D10220BDE8D2
:10719000F081012084F8840300BF06F07F0028B945
:1071A000227C294620680BF0A3FE04E0227C2946BD
:1071B00020680CF003F800BF002084F8840300BFAF
:1071C00000BFE4E72DE9FC5F044626684FF0000BA2
:1071D0000020019081460025009080468246FE4FA7
:1071E00020680CF075F9002879D120680CF0ABF913
:1071F00008B900F05FBB20680CF0A5F900F00200B0
:10720000022805D12068406900F002002168486129
:1072100020680CF098F900F40020B0F5002F7DD123
:10722000002520680CF062F9019085E0019800F0DB
:10723000010000287CD0E9B220680CF079F9814681
:1072400009F00100002859D0012106F5306000EB5B
:1072500045108160D6F8080B00F40040F0BB2069AF
:1072600001282BD1C5EBC50104F5F07000EB8100BE
:10727000816806F5306000EB45100069C0F312002C
:10728000091AC5EBC50204F5F07000EB82008161BC
:10729000C5EBC50104F5F07000EB8100C5EBC5023C
:1072A000C16804F5F07000EB820080680144C5EB12
:1072B000C50204F5F07000EB8200C160E9B220461F
:1072C000FFF702FE2069012811D13DB9C5EBC501C8
:1072D00004F5F07000EB8100406901E007E0D3E2C3
:1072E00028B904F56272012120680BF0C3FED6F8BC
:1072F000081B48F220000143C6F8081B09F00800EB
:10730000082808D1204600F00EFC082106F5306060
:1073100000EB4510816009F0100001E010E007E08B
:10732000102805D1102106F5306000EB4510816072
:107330006D1C019840080190019800287FF476AFF9
:1073400020680CF000F900F48020B0F5802F7DD18A
:1073500020680CF0C2F80190002585E0019800F04B
:10736000010000287CD0E9B220680CF0C8F8814602
:1073700009F00100F0B30120A840009040F634006D
:1073800080590099884340F634018851012106F55F
:10739000106000EB451081602069012815D1C5EB14
:1073A000C50104F13C0000EB8100C5EBC502C168DA
:1073B00004F13C0000EB820080680144C5EBC5028B
:1073C00004F13C0000EB8200C160E9B22046FFF707
:1073D0006BFD2069012810D165B9C5EBC50104F129
:1073E0003C0000EB8100406920B904F56272012184
:1073F000206800E001E00BF03DFE09F008000828DD
:1074000005D1082106F5106000EB4510816009F0F8
:107410001000102805D1102106F5106000EB451072
:10742000816009F04000402805D1402106F5106038
:1074300000EB4510816009F00200022805D102210D
:1074400006F5106000EB4510816001E010E007E0F8
:1074500009F08000802803D12946204608F05EF814
:107460006D1C019840080190019800287FF476AFC8
:1074700020680CF068F800F00040B0F1004F1CD11B
:1074800040F60400805920F0010140F604008151CB
:1074900094F8B803012807D1002084F8B80300212C
:1074A0002046FFF7CBFC02E0204600F013FB2068EB
:1074B000406900F000402168486120680CF043F802
:1074C00000F40060B0F5006F0ED140F6080080595E
:1074D00000F0010010B1204600F048FB2068406930
:1074E00000F400602168486120680CF02CF800F07E
:1074F0000060B0F1006F19D12068406900F00060B1
:107500002168486194F8B80368B9012084F8B80389
:107510002068406DC0F38300C4F8BC0301212046FD
:10752000FFF78CFC02E0204600F020FB20680CF006
:107530000AF800F48050B0F5805F5FD140F6040097
:10754000805920F0010140F604008151002120689B
:107550000BF0A6FF4FF0000B0CE0FF2106F51060CA
:1075600000EB4B10816006F5306000EB4B10816042
:107570000BF1010B60685845EFD84FF0FF3140F632
:1075800018008151001D805940F0011140F61C0087
:107590008151206B70B1D6F8840840F00B01C6F819
:1075A000841840F64400805940F00B0140F6440036
:1075B00081510EE040F61400805940F00B0140F676
:1075C00014008151001F805940F00B014FF40160FD
:1075D0008151D6F8000801E000B4C40420F4FE6034
:1075E000C6F80008217C04F5627220680BF042FDA9
:1075F0002068406900F480502168486120680BF0E1
:10760000A2FF00F40050B0F5005F77D120680BF0C6
:10761000D7FA2068C06820F470502168C860032140
:10762000E1604021616100F047FE074697488742CC
:1076300009D39748874206D22068C06840F470504A
:107640002168C8606EE09248874209D3914887421A
:1076500006D22068C06840F460502168C86061E0CC
:107660008C48874209D38C48874206D22068C0687C
:1076700040F450502168C86054E08748874209D3DD
:107680008648874206D22068C06840F4405021688E
:10769000C86047E08148874209D38148874206D2C3
:1076A0002068C06840F430502168C8603AE07C48E7
:1076B000874209D37B48874206D22068C06840F4DD
:1076C00020502168C8602DE07648874209D376486B
:1076D000874206D22068C06840F410502168C86014
:1076E00020E0714887420AD37048874207D2206859
:1076F000C06840F400502168C86013E01BE06B488C
:10770000874209D36A48874206D22068C06840F49D
:10771000E0502168C86005E02068C06840F4C050AF
:107720002168C860204600F0C9F92068406900F46B
:1077300000502168486120680BF005FF00F0100040
:10774000102845D12068806920F0100021688861E8
:10775000D6F8208008F00F00C0EBC00104F5F070EF
:1077600000EB810AC8F3434002281AD147F6F070B3
:1077700008EA000030B3C8F30A123046DAF80C10F9
:107780000BF0E7FEC8F30A11DAF80C000844CAF857
:107790000C00C8F30A11DAF818000844CAF81800F7
:1077A00010E0C8F3434006280CD1082204F56271AA
:1077B00030460BF0CEFEC8F30A11DAF81800084480
:1077C000CAF818002068806940F0100021688861BC
:1077D00020680BF0B8FE00F00800082808D1204609
:1077E00000F07FF92068406900F0080021684861D6
:1077F00020680BF0A8FE00F48010B0F5801F09D1BE
:10780000E9B2204600F059F82068406900F4801081
:107810002168486120680BF096FE00F40010B0F576
:10782000001F09D1E9B2204600F050F820684069F5
:1078300000F400102168486120680BF084FE00F01D
:107840008040B0F1804F08D12046FFF726FB20682A
:10785000406900F080402168486120680BF073FEA9
:1078600000F0040004280FD12068D0F8048008F04C
:107870000400042802D12046FFF736FB2068406848
:1078800040EA08002168486000BFB2E4C0ACD800FC
:10789000C0E1E4000024F40080730601A0491A014D
:1078A000002D310140A44C0100366E0120ABA60131
:1078B0000048E8013CBCBDE8C09F70B504460D46D9
:1078C0002946D4F8C8030AF0E5FD70BD70B504463A
:1078D0000D462946D4F8C8030AF0DFFD70BD30B567
:1078E0008BB00446002514B901200BB030BD94F8CC
:1078F000850328B9002084F88403204600F0A2F80C
:10790000032084F8850320680BF0EAFA282204F1AA
:1079100010016846FCF785FC94E80F000BF072F943
:10792000002120680BF029FE002530E00121C5EB85
:10793000C50204F13C0000EB82004170C5EBC502BA
:1079400004F13C0000F82250C5EBC50200EB8200B8
:10795000C5800021C5EBC50204F13C0000EB8200AC
:10796000C170C5EBC50204F13C0000EB82008160F0
:10797000C5EBC50204F13C0000EB8200C160C5EB21
:10798000C50204F13C0000EB820041616D1C60689F
:10799000A842CBD8002531E00021C5EBC50204F593
:1079A000F07000EB82004170C5EBC50204F5F07089
:1079B00000F82250C5EBC50204F13C0000EB820048
:1079C000C580C5EBC50204F5F07000EB8200C17004
:1079D000C5EBC50204F5F07000EB82008160C5EBD9
:1079E000C50204F5F07000EB8200C160C5EBC50272
:1079F00004F5F07000EB820041616D1C0F2DCBD3BC
:107A0000282204F110016846FCF70BFC94E80F00F3
:107A10000BF09EF9002084F83800012084F88503DB
:107A2000606A012802D12046FFF7F4F9A06A012814
:107A300002D12046FFF7E2F920680BF07AF9002026
:107A400053E7000010B586B0044600BF1A48C06C6A
:107A500040F001001849C8640846C06C00F00100FD
:107A6000009000BF00BF4FF4C05001900220029070
:107A700000200390032004900A20059001A94FF0F4
:107A80009040FEF7D3FD00BF0B48C06C40F480501F
:107A90000949C8640846C06C00F48050009000BFDB
:107AA00000BF002206214320FFF752F94320FFF7D1
:107AB00042F906B010BD00000010024010B50446A7
:107AC000D4F8C8030AF00CFD0121D4F8C8030AF069
:107AD00041FD10BD10B50446D4F8C8030AF022FDDC
:107AE00010BD10B50446D4F8C8030AF022FD10BD3D
:107AF00070B504460D4600BF94F88403012801D1F7
:107B0000022070BD012084F8840300BF84F838503F
:107B1000294620680BF049FD00BF002084F884034B
:107B200000BF00BFEDE710B5044604F56271D4F85C
:107B3000C8030AF01DFD10BD10B5044600BF94F83F
:107B40008403012801D1022010BD012084F88403A0
:107B500000BF20680BF0DEF820680BF083FC00BF4C
:107B6000002084F8840300BF00BFEDE710B5044691
:107B7000D4F8C8030AF045FD10BD00000348406872
:107B800040F40070014948607047000000700040F8
:107B90000348406840F48060014948607047000035
:107BA000007000400248006800F4C06070470000A8
:107BB000007000400348006840F48070014908608C
:107BC00070470000007000400648006820F0200068
:107BD00004499039C1F890000846806920F400708B
:107BE00088617047901002400348006840F004002C
:107BF0000149086070470000001002402DE9F84379
:107C00000446002600270025A846208800F40060CE
:107C1000B0F5006F30D1606E80B1B0F5800F13D039
:107C2000B0F5000F03D0B0F5400F15D113E0FA48BE
:107C3000C06840F48030F849C8600FE00021201D82
:107C400007F0B4FD054609E0002104F1200007F02B
:107C5000A3FE054602E001E0012500BF00BF55B9C3
:107C6000ED488830006820F44000616E0843EA491E
:107C7000C1F8880000E0A846208800F48050B0F5E4
:107C8000805F30D1A06E80B1B0F1807F13D0B0F1B1
:107C9000007F03D0B0F1407F15D113E0DE48C0680B
:107CA00040F48030DC49C8600FE00021201D07F05F
:107CB0007DFD054609E0002104F1200007F06CFE7F
:107CC000054602E001E0012500BF00BF55B9D248DA
:107CD0008830006820F04070A16E0843CE49C1F89A
:107CE000880000E0A846206800F40030B0F5003FAE
:107CF00076D14FF00009C848806D00F0805078B907
:107D000000BFC548806D40F08050C3498865084673
:107D1000806D00F08050009000BF00BF4FF001095F
:107D2000BE48006840F48070BC490860FEF788FDDA
:107D3000074606E0FEF784FDC01B022801D9032593
:107D400005E0B648006800F480700028F2D000BF5B
:107D500085BBB1489030006800F44076D6B1D4F8C5
:107D60008400B04216D0AC489030006820F44076D1
:107D7000A948D0F8900040F48030A749C1F890009D
:107D80000846D0F8900020F48030C1F890000846F2
:107D9000C0F8906006F00100A8B1FEF751FD07465B
:107DA00009E0FEF74DFDC01B41F28831884202D93F
:107DB000032507E017E098489030006800F00200C3
:107DC0000028EED000BF65B993489030006820F4D9
:107DD0004070D4F8841008438F49C1F8900003E044
:107DE0000CE0A84600E0A846B9F1010F05D18A4889
:107DF000806D20F080508849886500BF207800F0B1
:107E0000010048B184488830006820F00300A16B6D
:107E100008438149C1F88800207800F00200022858
:107E200009D17D488830006820F00C00E16B0843E0
:107E30007949C1F88800207800F00400042809D1AD
:107E400075488830006820F03000216C0843724982
:107E5000C1F88800207800F00800082809D16E4891
:107E60008830006820F0C000616C08436A49C1F89E
:107E70008800207800F01000102809D1664888306A
:107E8000006820F44070A16C08436349C1F8880081
:107E9000207800F02000202809D15F488830006851
:107EA00020F44060E16C08435B49C1F888002088F9
:107EB00000F40070B0F5007F09D1574888300068A1
:107EC00020F44020E16D08435349C1F88800208820
:107ED00000F48060B0F5806F09D14F4888300068A9
:107EE00020F44010216E08434B49C1F888002078E7
:107EF00000F04000402809D147488830006820F44D
:107F00004050216D08434449C1F88800207800F0B2
:107F10008000802809D140488830006820F4404023
:107F2000616D08433C49C1F88800208800F48070E6
:107F3000B0F5807F09D138488830006820F440309F
:107F4000A16D08433449C1F88800208800F400502E
:107F5000B0F5005F1FD130488830006820F04060E5
:107F6000E16E08432C4988310860E06EB0F1006F83
:107F700006D12948C06840F480102749C8600AE04B
:107F8000E06EB0F1806F06D10121201D07F00EFCDC
:107F9000054605B1A846206800F40020B0F5002F82
:107FA0001FD11D488830006820F04060216F0843D1
:107FB000194988310860206FB0F1006F06D116486A
:107FC000C06840F480101449C8600AE0206FB0F126
:107FD000806F06D10121201D07F0E8FB054605B1A1
:107FE000A846206800F48020B0F5802F23D10A48ED
:107FF0008830006820F04060616F0843064988318E
:108000000860606FB0F1006F0AD10348C06840F4A7
:1080100080100149C8600EE000100240007000406E
:10802000606FB0F1806F06D10121201D07F0BEFB0B
:10803000054605B1A846208800F48040B0F5804F81
:108040001FD12248006820F04050A16F08431F490B
:108050000860A06FB0F1805F07D10221201D07F0FA
:10806000A5FB05466DB1A8460BE0A06FB0F1005F1F
:1080700007D1022104F1200007F08EFC054605B16E
:10808000A846208800F40040B0F5004F09D10F4801
:10809000006820F08040E16F08430C498839C1F83E
:1080A0008800206800F48030B0F5803F0AD107488E
:1080B000006820F00040D4F8801008430349883954
:1080C000C1F888004046BDE8F883000088100240EF
:1080D00070B504460D4600267348006800F007009E
:1080E000A8420ED27048006820F0070028436E496D
:1080F00008600846006800F00700A84201D001208F
:1081000070BD207800F00200022807D1674880681F
:1081100020F0F000A168084364498860207800F0EE
:108120000100002879D06068022806D15F48006805
:1081300000F40030D8B90120E2E76068032806D1D6
:108140005A48006800F0007088B90120D8E76068DC
:1081500030B95648006800F0020040B90120CFE76E
:108160005248006800F4806008B90120C8E74F4811
:10817000806820F00300616808434C498860FEF77E
:108180005FFB06466068022810D108E0FEF758FB46
:10819000801B41F28831884201D90320B0E743486F
:1081A000806800F00C000828F0D136E060680328F1
:1081B00010D108E0FEF744FB801B41F28831884271
:1081C00001D903209CE73948806800F00C000C2896
:1081D000F0D122E0606880B908E0FEF731FB801B37
:1081E00041F28831884201D9032089E72F4880680D
:1081F00000F00C000028F0D10FE008E0FEF720FBB3
:10820000801B41F28831884201D9032078E7274852
:10821000806800F00C000428F0D12348006800F0CA
:108220000700A8420ED92048006820F00700284324
:108230001D4908600846006800F00700A84201D008
:1082400001205DE7207800F00400042807D11748DA
:10825000806820F4E060E168084314498860207871
:1082600000F00800082808D11048806820F4605009
:10827000216940EAC1000D49886000F023F80B49EC
:10828000896801F0F001F02292FAA2F2B2FA82F2C9
:10829000D140074A515CC840064908600F20FEF7EC
:1082A00035FD00202CE700000020024000100240B5
:1082B0001C71010808000020014800687047000098
:1082C00008000020F0B5002100230024022502222E
:1082D0000020554EB66806F00C065EB1524EB668E8
:1082E00006F00C060C2E2DD14F4EF66806F0030654
:1082F000012E27D14C4E366806F008066EB94A4E5C
:108300009436366806F470664FF4706797FAA7F7EC
:10831000B7FA87F726FA07F10AE0434E366806F007
:10832000F006F02797FAA7F7B7FA87F726FA07F1CA
:108330003E4E56F821103C4EB66806F00C0686B943
:1083400008460EE0384EB66806F00C06042E01D141
:10835000374806E0344EB66806F00C06082E00D109
:108360003448314EB66806F00C060C2E5BD12E4E0A
:10837000F66806F003042C4EF66806F070067027C7
:1083800097FAA7F7B7FA87F7FE40721C012C29D09D
:10839000022C02D0032C24D111E0254EB6FBF2F6BC
:1083A000214FFF6807F4FE474FF4FE4C9CFAACFCEB
:1083B000BCFA8CFC27FA0CF706FB07F323E01D4EF2
:1083C000B6FBF2F6184FFF6807F4FE474FF4FE4C79
:1083D0009CFAACFCBCFA8CFC27FA0CF706FB07F302
:1083E00011E000BFB1FBF2F60F4FFF6807F4FE4744
:1083F0004FF4FE4C9CFAACFCBCFA8CFC27FA0CF750
:1084000006FB07F300BF00BF074EF66806F0C06624
:108410004FF0C06797FAA7F7B7FA87F7FE40761CC8
:108420007500B3FBF5F0F0BD001002403471010897
:108430000024F40000127A00F8B5044600252078E4
:1084400000F01000102874D1FE48806800F00C0085
:10845000002870D1FB48006800F0020018B1A06944
:1084600008B90120F8BDF748216A006800F008004B
:1084700020B1F448006800F0F00005E0F1489430C5
:10848000006800F47060000981421FD9206A07F07B
:1084900059FB08B10120E5E700BFEA48006840F059
:1084A0000800E84908600846006820F0F000216AEA
:1084B0000843E449086000BF0846406820F47F4054
:1084C000E16940EA0120DF4948601EE000BFDD4865
:1084D000006840F00800DB4908600846006820F0AA
:1084E000F000216A0843D749086000BF0846406889
:1084F00020F47F40E16940EA0120D2494860206AC7
:1085000007F020FB08B10120ACE7FFF7DBFECD4907
:10851000896801F0F001F02292FAA2F2B2FA82F236
:10852000D140C94A515CC840C84908600F20FEF7D5
:10853000EDFB4BE0FFE7A06980B3C248006840F064
:108540000100C0490860FEF77BF9054606E0FEF72A
:1085500077F9401B022801D9032083E7B948006856
:1085600000F002000028F2D000BFB648006840F0DA
:108570000800B44908600846006820F0F000216A4D
:108580000843B049086000BF0846406820F47F40B7
:10859000E16940EA0120AB49486017E0FFE7A948DC
:1085A000006820F00100A7490860FEF749F9054678
:1085B00006E0FEF745F9401B022801D9032051E7E8
:1085C000A048006800F002000028F2D1207800F0F6
:1085D000010000286CD09B48806800F00C0008283F
:1085E0000BD09848806800F00C000C280ED19548FC
:1085F000C06800F00300032808D19248006800F426
:10860000003088B3606878BB01202BE700BF60684A
:10861000B0F5803F06D18B48006840F4803089492E
:1086200008601AE06068B0F5A02F0BD1854800689B
:1086300040F48020834908600846006840F4803098
:1086400008600AE07F48006820F480307D490860B7
:108650000846006820F48020086000BF6068A0B170
:10866000FEF7EEF8054609E022E0FEF7E9F8401BC8
:1086700041F28831884201D90320F3E6714800684D
:1086800000F400300028F0D012E0FEF7D9F80546DB
:1086900008E0FEF7D5F8401B41F28831884201D945
:1086A0000320DFE66748006800F400300028F0D1BE
:1086B000207800F0020002286AD16248806800F049
:1086C0000C0004280BD05F48806800F00C000C28D8
:1086D0001ED15C48C06800F00300022818D1594838
:1086E000006800F4806018B1E06808B90120B9E6BC
:1086F0005448406820F0F8504FF0F85292FAA2F235
:10870000B2FA82F22169914008434E4948603FE045
:10871000E06830B34B48006840F480704949086015
:10872000FEF78EF8054606E0FEF78AF8401B0228A1
:1087300001D9032096E64348006800F480600028D1
:10874000F2D04048406820F0F8504FF0F85292FACA
:10875000A2F2B2FA82F22169914008433949486095
:1087600016E03848006820F4807036490860FEF74B
:1087700067F8054606E0FEF763F8401B022801D9BA
:1087800003206FE62F48006800F480600028F2D1D3
:10879000207800F00800082836D16069D0B1294857
:1087A0009430006840F001002649C1F89400FEF7BB
:1087B00047F8054606E0FEF743F8401B022801D9BA
:1087C00003204FE61F489430006800F002000028A4
:1087D000F1D019E01B489430006820F001001949DD
:1087E000C1F89400FEF72CF8054606E0FEF728F8DD
:1087F000401B022801D9032034E612489430006857
:1088000000F002000028F1D1207800F004000428D4
:1088100070D100260B48806D00F0805070B900BF09
:108820000848806D40F08050064988650846806D94
:1088300000F08050009000BF00BF0126044800688F
:1088400008E00000001002401C7101080800002030
:108850000070004000F48070B0B98948006840F4AE
:10886000807087490860FDF7EBFF054606E0FDF7DD
:10887000E7FF401B022801D90320F3E58048006888
:1088800000F480700028F2D000BFA068012808D151
:108890007C48006840F001007A499039C1F89000A6
:1088A00021E0A06805280FD17648006840F0040058
:1088B00074499039C1F890000846D0F8900040F013
:1088C0000100C1F890000EE06E48006820F0010041
:1088D0006C499039C1F890000846D0F8900020F01B
:1088E0000400C1F8900000BFA068A0B1FDF7A8FF88
:1088F000054609E02DE0FDF7A3FF401B41F288315A
:10890000884201D90320ADE55E48006800F002000E
:108910000028F0D012E0FDF793FF054608E0FDF7D0
:108920008FFF401B41F28831884201D9032099E52D
:108930005448006800F002000028F0D1012E07D151
:1089400050489038806D20F080504E4990398865AD
:1089500000BFA06AF0B34B489038806800F00C006C
:108960000C2879D0A06A022853D146489038006874
:1089700020F08070434990390860FDF761FF05469B
:1089800006E0FDF75DFF401B022801D9032069E5E1
:108990003C489038006800F000700028F1D1206B4E
:1089A000401E0101606B41EA0021A06B000941EA11
:1089B0004040E16A0843A18F0122C2EB510140EA25
:1089C00041514020005DC2EB500041EA40602D491A
:1089D000903900E052E0C8600846006840F08070BE
:1089E00008600846C06840F08070C860FDF728FF46
:1089F000054606E0FDF724FF401B022801D90320AD
:108A000030E520489038006800F000700028F1D070
:108A100034E01C489038006820F080701949903983
:108A200008600846006800F0006048B90846006821
:108A300000F0005020B90846C06820F00300C8606C
:108A400010489038C068104908400E499039C860F5
:108A5000FDF7F6FE054607E00EE0FDF7F1FE401BD0
:108A6000022801D90320FDE406489038006800F090
:108A700000700028F1D101E00120F3E40020F1E4CE
:108A80000070004090100240FFFFEEFE70B50546FA
:108A90000B4616460024286840680E4900EA010487
:108AA000200CD870C4F30420587004F03F00987074
:108AB000C4F3423018705EB9D87807F093F8D870D4
:108AC000587807F08FF85870987807F08BF89870FE
:108AD000002070BD3FFFFF0070B504460B461646F0
:108AE00000252068806A586020680069C0F30E0085
:108AF0009860206800680F4900EA0105C5F3054049
:108B00001870C5F30620587005F07F00987005F4C2
:108B10008000000CD8705EB9187807F063F8187000
:108B2000587807F05FF85870987807F05BF89870FD
:108B3000002070BD7F7F7F0010B504460CB9012076
:108B400010BD94F8210028B9002084F820002046A8
:108B500000F054F8022084F8210000BFCA202168E8
:108B6000486253202168486200BF204607F06CF835
:108B700048B100BFFF202168486200BF042084F88C
:108B800021000120DCE7206880681B49084021683B
:108B90008860216960680843A16908432168896881
:108BA0000843216888602168E068086120680169DD
:108BB000208941EA0040216808612068C06820F0EF
:108BC00080002168C8602068C06C20F00300216824
:108BD000C8646169E06908432168C96C0843216879
:108BE000C86400BFFF202168486200BF012084F8EC
:108BF00021000020A4E70000BFFF8FFF10B504464E
:108C00000848006840F4004006499039C1F89000D7
:108C100000220F212920FEF79BF82920FEF78BF870
:108C200010BD0000901002402DE9F04104460D46B1
:108C30001646002700BF94F82000012802D1022028
:108C4000BDE8F081012084F8200000BF022084F8F4
:108C500021004EB9687800F01000102804D168781F
:108C600000F0EF000A30687086B9E87806F0C5FFBA
:108C70000304687806F0C1FF43EA0023A87806F0F1
:108C8000BCFF0343287843EA403711E0687806F0D8
:108C9000A9FF0746A87806F0A5FF0746E878000474
:108CA000697840EA0120A9780843297840EA4137E9
:108CB00000BFCA202168486253202168486200BF73
:108CC000204606F0C1FF70B100BFFF202168486256
:108CD00000BF042084F8210000BF002084F8200099
:108CE00000BF0120ACE71848384021684860206880
:108CF000C06820F080002168C8602068806800F0AB
:108D0000200090B9204600F0C5F870B100BFFF20E8
:108D10002168486200BF042084F8210000BF0020C1
:108D200084F8200000BF01208AE700BFFF202168EF
:108D3000486200BF012084F8210000BF002084F8B1
:108D4000200000BF00BF7BE73FFFFF002DE9F0419F
:108D500004460D461646002700BF94F8200001285F
:108D600002D10220BDE8F081012084F8200000BF7C
:108D7000022084F82100CEB92068806800F040000D
:108D800000B102E00020E87000BF287806F035FF4F
:108D90000304687806F031FF43EA0023A87806F060
:108DA0002CFF0343E87843EA004716E02068806818
:108DB00000F0400020B1287806F014FF074602E0DA
:108DC0000020E87000BF28780004697840EA01209C
:108DD000A9780843E97840EA014700BFCA20216822
:108DE000486253202168486200BF204606F02CFFED
:108DF00070B100BFFF202168486200BF042084F8E2
:108E0000210000BF002084F8200000BF0120A9E756
:108E10001F483840216808602068806820F480205E
:108E200021688860D5E903010843216889680843FF
:108E3000216888602068C06820F080002168C860D0
:108E40002068806800F0200090B9204600F022F8E9
:108E500070B100BFFF202168486200BF042084F881
:108E6000210000BF002084F8200000BF012079E726
:108E700000BFFF202168486200BF012084F8210064
:108E800000BF002084F8200000BF00BF6AE7000098
:108E90007F7F7F0070B5044600252068C06820F001
:108EA000A0002168C860FDF7CBFC054607E0FDF790
:108EB000C7FC401BB0F57A7F01D9032070BD206844
:108EC000C06800F020000028F1D00020F6E710B5BF
:108ED00004460CB9012010BD022084F85D00206812
:108EE000006820F0400021680860204600F075F816
:108EF0000020206684F85D0000BF84F85C0000BF9D
:108F000000BFE8E7014691F85D00704770B5044680
:108F10000CB9012070BD94F85D0028B9002084F8D8
:108F20005C00204600F05AF8022084F85D002068BA
:108F3000006820F0400021680860E068B0F5E06F4C
:108F400001D9002501E04FF48055E068B0F5706F5D
:108F500005D0E068B0F5E06F01D00021A162206B80
:108F600040B9E068B0F5E06F02D90221216301E069
:108F700001212163D4E901010843216908436169A2
:108F80000843218B01F400710843E1690843216A19
:108F90000843A16A084321680860206B022805D1B4
:108FA0002068006840F40060216808600421A0691E
:108FB00001EA1040616A0843616B0843E1680843B5
:108FC0002843216848602168E06A08610020206623
:108FD000012084F85D0000209CE7704770472DE970
:108FE000F84304460F4616461D46FDF729FC804609
:108FF0004FF0000900BF94F85C00012802D1022064
:10900000BDE8F883012084F85C0000BF94F85D009F
:10901000012802D04FF00209AFE007B116B94FF0B6
:109020000109AAE0032084F85D0000202066A76300
:10903000A687E6872064A4F84400A4F84600A06848
:10904000B0F5004F05D12068006840F480402168E9
:109050000860A06AB0F5005F0ED100BF206800680C
:109060004DF6FF710840216808602068006840F4F0
:1090700000502168086000BF2068006800F04000D0
:10908000402805D02068006840F040002168086052
:10909000E068B0F5E06F21D91CE02068806800F03E
:1090A000020002280AD1A06B00882168C860A06B6A
:1090B000801CA063E08F401EE0870BE03DB1681C80
:1090C00040B1FDF7BDFBA0EB0800A84202D34FF072
:1090D000030952E0E08F0028DFDC2DE029E0206862
:1090E000806800F00200022817D1E08F01280ADD15
:1090F000A06B00882168C860A06B801CA063E08F13
:10910000801EE08715E0A16B481CA06308782168E9
:109110000873E08F401EE0870BE03DB1681C40B152
:10912000FDF78EFBA0EB0800A84202D34FF0030925
:1091300023E0E08F0028D2DCA06AB0F5005F05D103
:109140002068006840F48050216808602946204665
:1091500007F0CBFA08B120202066A06840B900BF14
:109160002068C068009020688068009000BF00BF41
:10917000206E08B14FF0010900BF012084F85D00A6
:1091800000BF002084F85C0000BF484638E72DE9A6
:10919000F84F04460F4690461D460A9EFDF750FBC9
:1091A00081464FF0000A00BF94F85C00012802D10C
:1091B000022000F06CB9012084F85C0000BF94F834
:1091C0005D00012802D04FF0020A56E11FB1B8F14C
:1091D000000F00D015B94FF0010A4EE1052084F8C8
:1091E0005D0000202066C4F84080A4F84650A4F832
:1091F0004450A763E587A587A06AB0F5005F0ED14C
:1092000000BF206800684DF6FF71084021680860C3
:109210002068006840F400502168086000BFE068E2
:10922000B0F5E06F03D8B4F84600012806DD2068E9
:10923000406820F480502168486005E0206840685C
:1092400040F48050216848602068006800F04000C9
:10925000402805D02068006840F040002168086080
:10926000E068B0F5E06F47D93EE0E08F00281BDDF5
:109270002068806800F00200022815D1A06B0088E9
:109280002168C860A06B801CA063E08F401EE0874F
:10929000E08F48B9A06AB0F5005F05D1206800688A
:1092A00040F4805021680860B4F84600002810DDC2
:1092B0002068806800F0010058B12068C068216C07
:1092C0000880206C801C2064B4F84600401EA4F87E
:1092D0004600701C40B1FDF7B3FAA0EB0900B042A4
:1092E00002D34FF0030AC8E0E08F0028BDDCB4F8D9
:1092F00046000028B9DC6DE065E0E08F002828DD3D
:109300002068806800F00200022822D1E08F012846
:109310000ADDA06B00882168C860A06B801CA06378
:10932000E08F801EE08708E0A16B481CA0630878EE
:1093300021680873E08F401EE087E08F48B9A06A7B
:10934000B0F5005F05D12068006840F480502168C6
:109350000860B4F8460000282ADD2068806800F024
:10936000010028B3B4F84600012816DD2068C06863
:10937000216C0880206C801C2064B4F84600801E9C
:10938000A4F84600B4F84600012811DC20684068C3
:1093900040F48050216848600AE02068017B226C1C
:1093A000501C20641170B4F84600401EA4F846001A
:1093B000701C40B1FDF744FAA0EB0900B04202D3A3
:1093C0004FF0030A59E0E08F002896DCB4F846001D
:1093D000002892DCA06AB0F5005F33D13346012249
:1093E0001146204607F05EFA30B1206E40F00200D0
:1093F00020664FF0030A40E0E068B0F5706F06D1D8
:109400002068C06880B20090BDF800001AE02068B3
:10941000007B0090BDF80000206B022812D133467B
:1094200001221146204607F03DFA30B1206E40F08F
:10943000020020664FF0030A1FE02068007B0090C6
:10944000BDF8000020688068C0F3001048B1206EAD
:1094500040F0020020664FF6EF70216888604FF000
:10946000010A3146204607F040F908B12020206665
:10947000206E08B14FF0010A00BF012084F85D00A2
:1094800000BF002084F85C0000BF504691E618BC85
:10949000BDE8E08F70B504462546681EB0F1807FB8
:1094A00001D301200FE0681E4FF0E02148610F2139
:1094B0004FF0FF3006F016F800204FF0E0218861F1
:1094C00007200861002070BD7047704710B5044642
:1094D0000CB9012010BD94F8390028B9002084F897
:1094E0003800204600F00CF8022084F83900211DD5
:1094F000206808F027FA012084F839000020E9E705
:10950000704701460868C06840F001000A68D060F2
:109510000868006840F001000A6810600020704789
:10952000704710B5044620680069C0F34000D8B108
:109530002068C068C0F34000B0B16FF0020021683D
:109540000861012020762068806900F0030018B1CE
:109550002046FFF7E5FF05E0204600F0ADF8204685
:1095600000F0ABF80020207620680069C0F380008E
:10957000D8B12068C068C0F38000B0B16FF00400BB
:1095800021680861022020762068806900F440701C
:1095900018B12046FFF7C4FF05E0204600F08CF824
:1095A000204600F08AF80020207620680069C0F389
:1095B000C000D8B12068C068C0F3C000B0B16FF07F
:1095C000080021680861042020762068C06900F046
:1095D000030018B12046FFF7A3FF05E0204600F086
:1095E0006BF8204600F069F80020207620680069BA
:1095F000C0F30010D8B12068C068C0F30010B0B14B
:109600006FF0100021680861082020762068C0698A
:1096100000F4407018B12046FFF782FF05E02046B5
:1096200000F04AF8204600F048F800202076206834
:10963000006900F0010058B12068C06800F0010026
:1096400030B16FF0010021680861204600F036F863
:1096500020680069C0F3C01058B12068C068C0F32A
:10966000C01030B16FF08000216808612046FFF71C
:109670002BFF20680069C0F3801058B12068C068D3
:10968000C0F3801030B16FF04000216808612046BF
:1096900000F04EF820680069C0F3401058B120680F
:1096A000C068C0F3401030B16FF02000216808613D
:1096B0002046FFF70AFF10BD7047704770B5064699
:1096C0001748006817490968884227D0144800687D
:1096D00014490968884204D911480068C0F500643B
:1096E00004E0104800680E490968441A0C480568EF
:1096F000A2B20D4841190D4808F067FB0B4808F06D
:10970000B7FB58B906480068204405490860084678
:109710000068B0F5006F01D10020086070BD000046
:109720005C05002058050020D41700208C0D002077
:10973000704738B504466B4601222021204600F0D0
:10974000EAFA08B1012038BD9DF8000040F0800021
:1097500000906B4601222021204600F0B8FC08B1A1
:109760000120F0E70020EEE738B504460020009025
:109770006946204600F0DEF9012800D138BD207886
:109780009DF80010884201D00120F7E70020F5E79E
:1097900038B504466B4601222021204600F0BBFA72
:1097A00008B1012038BD9DF8000020F08000009035
:1097B0006B4601222021204600F089FC08B10120DF
:1097C000F0E70020EEE7F8B506460C4615466B4676
:1097D00001222721304600F09EFA08B10120F8BD91
:1097E0009DF80000C0F3400020709DF8000000F0DC
:1097F000010028700020F2E770B505460C462346AC
:1098000001220F21284600F086FA08B1012070BD20
:109810000020FCE738B505460C460020009069465C
:10982000284600F011F8012800D138BDBDF800002D
:1098300000EE100AB8EE400AF2EE040A80EE201A9A
:1098400084ED001A0020F0E72DE9F0472DED028BA2
:1098500082B082460E4601AB02223021504600F013
:109860005AFA28B1012002B0BDEC028BBDE8F087A6
:109870009DF8040044109DF805004FEA600801AB14
:1098800002223621504600F046FA08B10120EAE7EC
:109890009DF804009DF8051040EA012005B201ABD7
:1098A00002223A21504600F036FA08B10120DAE7E8
:1098B0009DF804009DF8051040EA012007B201ABB5
:1098C00002222821504600F026FA08B10120CAE7FA
:1098D0009DF804009DF8051040EA01200FFA80F978
:1098E000A9EB050000EE100AF8EEC00AA8EB040090
:1098F00000EE100AB8EEC00A20EE801A781B00EEC7
:10990000100AB8EEC00AC1EE000A00EE104AB8EE26
:10991000C00A30EE800AB0EE408AB2EE040A28EEA9
:10992000000AB0EE408A9FED0C0AB4EEC08AF1EE58
:1099300010FA02DD4FF47A700BE0B5EEC08AF1EE5A
:1099400010FA01D2002004E0BCEEC80A10EE100AA2
:1099500080B23080002086E700007A4438B50546A2
:109960000C466946284600F02DF8012800D138BD84
:109970009DF8000030B1012809D002280CD003283E
:1099800014D10EE09FED0E0A84ED000A14E0B7EE4C
:10999000000A84ED000A0FE0B1EE0C0A84ED000A23
:1099A0000AE0B2EE090A84ED000A05E0BFEE000A03
:1099B00084ED000A0120DAE700BF0020D7E70000AD
:1099C0000000000038B505460C466B4601222021F8
:1099D000284600F0A0F908B1012038BD9DF800002C
:1099E00000F0030000909DF8000020700020F4E7D4
:1099F00038B505460C46002000906946284600F020
:109A000011F8012800D138BDBDF9000000EE100AA0
:109A1000B8EEC00AF2EE040A80EE201A84ED001AB5
:109A20000020F0E72DE9F34F2DED028B83B088463F
:109A300002AB02223221059800F06DF928B1012015
:109A400003B0BDEC028B00F072B801AB01223521EE
:109A5000059800F060F908B10120F1E79DF80800D1
:109A60009DF8041001F0030140EA01269DF8090069
:109A70009DF8041001F00C0140EA8117F4104FEA40
:109A8000E70B02AB04223C21059800F044F908B131
:109A90000120D5E79DF808009DF8091040EA012053
:109AA00005B29DF80A009DF80B1040EA01200FFA5C
:109AB00080F902AB02222A21059800F02CF908B1A6
:109AC0000120BDE79DF808009DF8091040EA01203B
:109AD0000FFA80FAAAEB050000EE100AF8EEC00AB1
